{
  "contractName": "NFTAuction",
  "abi": [
    {
      "inputs": [],
      "payable": false,
      "stateMutability": "nonpayable",
      "type": "constructor"
    },
    {
      "constant": true,
      "inputs": [],
      "name": "aucIndex",
      "outputs": [
        {
          "internalType": "uint256",
          "name": "",
          "type": "uint256"
        }
      ],
      "payable": false,
      "stateMutability": "view",
      "type": "function"
    },
    {
      "constant": true,
      "inputs": [
        {
          "internalType": "uint256",
          "name": "",
          "type": "uint256"
        }
      ],
      "name": "deals",
      "outputs": [
        {
          "internalType": "uint256",
          "name": "aucid",
          "type": "uint256"
        },
        {
          "internalType": "uint256",
          "name": "nftid",
          "type": "uint256"
        },
        {
          "internalType": "uint256",
          "name": "auctionStartTime",
          "type": "uint256"
        },
        {
          "internalType": "uint256",
          "name": "auctionEndTime",
          "type": "uint256"
        },
        {
          "internalType": "uint256",
          "name": "startPrice",
          "type": "uint256"
        },
        {
          "internalType": "uint256",
          "name": "highestBid",
          "type": "uint256"
        },
        {
          "internalType": "address",
          "name": "lastowner",
          "type": "address"
        },
        {
          "internalType": "address",
          "name": "highestBidder",
          "type": "address"
        },
        {
          "internalType": "enum NFTAuction.NFTStatus",
          "name": "status",
          "type": "uint8"
        }
      ],
      "payable": false,
      "stateMutability": "view",
      "type": "function"
    },
    {
      "constant": true,
      "inputs": [],
      "name": "nftIndex",
      "outputs": [
        {
          "internalType": "uint256",
          "name": "",
          "type": "uint256"
        }
      ],
      "payable": false,
      "stateMutability": "view",
      "type": "function"
    },
    {
      "constant": true,
      "inputs": [
        {
          "internalType": "uint256",
          "name": "",
          "type": "uint256"
        },
        {
          "internalType": "uint256",
          "name": "",
          "type": "uint256"
        }
      ],
      "name": "own",
      "outputs": [
        {
          "internalType": "address",
          "name": "",
          "type": "address"
        }
      ],
      "payable": false,
      "stateMutability": "view",
      "type": "function"
    },
    {
      "constant": true,
      "inputs": [
        {
          "internalType": "uint256",
          "name": "",
          "type": "uint256"
        }
      ],
      "name": "stores",
      "outputs": [
        {
          "internalType": "uint256",
          "name": "id",
          "type": "uint256"
        },
        {
          "internalType": "string",
          "name": "name",
          "type": "string"
        },
        {
          "internalType": "string",
          "name": "description",
          "type": "string"
        },
        {
          "internalType": "address payable",
          "name": "presentowner",
          "type": "address"
        },
        {
          "internalType": "address",
          "name": "lastowner",
          "type": "address"
        },
        {
          "internalType": "uint256",
          "name": "sp",
          "type": "uint256"
        },
        {
          "internalType": "uint256",
          "name": "numown",
          "type": "uint256"
        },
        {
          "internalType": "enum NFTAuction.EnableSale",
          "name": "state",
          "type": "uint8"
        }
      ],
      "payable": false,
      "stateMutability": "view",
      "type": "function"
    },
    {
      "constant": false,
      "inputs": [
        {
          "internalType": "string",
          "name": "_name",
          "type": "string"
        },
        {
          "internalType": "string",
          "name": "_description",
          "type": "string"
        },
        {
          "internalType": "uint256",
          "name": "sp",
          "type": "uint256"
        }
      ],
      "name": "addNFT",
      "outputs": [],
      "payable": true,
      "stateMutability": "payable",
      "type": "function"
    },
    {
      "constant": false,
      "inputs": [
        {
          "internalType": "uint256",
          "name": "_nftid",
          "type": "uint256"
        },
        {
          "internalType": "uint256",
          "name": "_auctionStartTime",
          "type": "uint256"
        },
        {
          "internalType": "uint256",
          "name": "_auctionEndTime",
          "type": "uint256"
        },
        {
          "internalType": "uint256",
          "name": "_startPrice",
          "type": "uint256"
        }
      ],
      "name": "addItem",
      "outputs": [],
      "payable": false,
      "stateMutability": "nonpayable",
      "type": "function"
    },
    {
      "constant": false,
      "inputs": [
        {
          "internalType": "uint256",
          "name": "_aucid",
          "type": "uint256"
        }
      ],
      "name": "check",
      "outputs": [],
      "payable": false,
      "stateMutability": "nonpayable",
      "type": "function"
    },
    {
      "constant": false,
      "inputs": [
        {
          "internalType": "uint256",
          "name": "_nftid",
          "type": "uint256"
        }
      ],
      "name": "checksale",
      "outputs": [],
      "payable": false,
      "stateMutability": "nonpayable",
      "type": "function"
    },
    {
      "constant": true,
      "inputs": [],
      "name": "getDate",
      "outputs": [
        {
          "internalType": "uint256",
          "name": "",
          "type": "uint256"
        }
      ],
      "payable": false,
      "stateMutability": "view",
      "type": "function"
    },
    {
      "constant": false,
      "inputs": [
        {
          "internalType": "uint256",
          "name": "_aucid",
          "type": "uint256"
        },
        {
          "internalType": "uint256",
          "name": "value",
          "type": "uint256"
        }
      ],
      "name": "bid",
      "outputs": [
        {
          "internalType": "bool",
          "name": "",
          "type": "bool"
        }
      ],
      "payable": false,
      "stateMutability": "nonpayable",
      "type": "function"
    },
    {
      "constant": false,
      "inputs": [
        {
          "internalType": "uint256",
          "name": "_aucid",
          "type": "uint256"
        }
      ],
      "name": "payNFT",
      "outputs": [],
      "payable": true,
      "stateMutability": "payable",
      "type": "function"
    }
  ],
  "bytecode": "0x608060405234801561001057600080fd5b50600080819055506000600181905550611cc68061002f6000396000f3fe6080604052600436106100a75760003560e01c806364b763201161006457806364b763201461041157806389de38c41461043f578063cdc76fae1461046a578063df08f93514610495578063e8a59cd81461051a578063ee75bc4e146106ca576100a7565b806303988f84146100ac5780633910445614610199578063430fe9c1146102f5578063572b130f14610320578063598647f8146103795780635f72f450146103d6575b600080fd5b3480156100b857600080fd5b506100e5600480360360208110156100cf57600080fd5b8101908080359060200190929190505050610705565b604051808a81526020018981526020018881526020018781526020018681526020018581526020018473ffffffffffffffffffffffffffffffffffffffff1673ffffffffffffffffffffffffffffffffffffffff1681526020018373ffffffffffffffffffffffffffffffffffffffff1673ffffffffffffffffffffffffffffffffffffffff16815260200182600281111561017d57fe5b60ff168152602001995050505050505050505060405180910390f35b6102f3600480360360608110156101af57600080fd5b81019080803590602001906401000000008111156101cc57600080fd5b8201836020820111156101de57600080fd5b8035906020019184600183028401116401000000008311171561020057600080fd5b91908080601f016020809104026020016040519081016040528093929190818152602001838380828437600081840152601f19601f8201169050808301925050505050505091929192908035906020019064010000000081111561026357600080fd5b82018360208201111561027557600080fd5b8035906020019184600183028401116401000000008311171561029757600080fd5b91908080601f016020809104026020016040519081016040528093929190818152602001838380828437600081840152601f19601f820116905080830192505050505050509192919290803590602001909291905050506107a0565b005b34801561030157600080fd5b5061030a6109d4565b6040518082815260200191505060405180910390f35b34801561032c57600080fd5b506103776004803603608081101561034357600080fd5b81019080803590602001909291908035906020019092919080359060200190929190803590602001909291905050506109dc565b005b34801561038557600080fd5b506103bc6004803603604081101561039c57600080fd5b810190808035906020019092919080359060200190929190505050611018565b604051808215151515815260200191505060405180910390f35b3480156103e257600080fd5b5061040f600480360360208110156103f957600080fd5b8101908080359060200190929190505050611297565b005b61043d6004803603602081101561042757600080fd5b810190808035906020019092919050505061131e565b005b34801561044b57600080fd5b506104546115f3565b6040518082815260200191505060405180910390f35b34801561047657600080fd5b5061047f6115f9565b6040518082815260200191505060405180910390f35b3480156104a157600080fd5b506104d8600480360360408110156104b857600080fd5b8101908080359060200190929190803590602001909291905050506115ff565b604051808273ffffffffffffffffffffffffffffffffffffffff1673ffffffffffffffffffffffffffffffffffffffff16815260200191505060405180910390f35b34801561052657600080fd5b506105536004803603602081101561053d57600080fd5b810190808035906020019092919050505061164a565b6040518089815260200180602001806020018873ffffffffffffffffffffffffffffffffffffffff1673ffffffffffffffffffffffffffffffffffffffff1681526020018773ffffffffffffffffffffffffffffffffffffffff1673ffffffffffffffffffffffffffffffffffffffff1681526020018681526020018581526020018460018111156105e157fe5b60ff16815260200183810383528a818151815260200191508051906020019080838360005b83811015610621578082015181840152602081019050610606565b50505050905090810190601f16801561064e5780820380516001836020036101000a031916815260200191505b50838103825289818151815260200191508051906020019080838360005b8381101561068757808201518184015260208101905061066c565b50505050905090810190601f1680156106b45780820380516001836020036101000a031916815260200191505b509a505050505050505050505060405180910390f35b3480156106d657600080fd5b50610703600480360360208110156106ed57600080fd5b810190808035906020019092919050505061180f565b005b60026020528060005260406000206000915090508060000154908060010154908060020154908060030154908060040154908060050154908060060160009054906101000a900473ffffffffffffffffffffffffffffffffffffffff16908060070160009054906101000a900473ffffffffffffffffffffffffffffffffffffffff16908060070160149054906101000a900460ff16905089565b6107a8611a02565b60405180610100016040528060005481526020018581526020018481526020013373ffffffffffffffffffffffffffffffffffffffff1681526020013373ffffffffffffffffffffffffffffffffffffffff168152602001838152602001600181526020016000600181111561081a57fe5b815250905080600460008054815260200190815260200160002060008201518160000155602082015181600101908051906020019061085a929190611a7e565b506040820151816002019080519060200190610877929190611a7e565b5060608201518160030160006101000a81548173ffffffffffffffffffffffffffffffffffffffff021916908373ffffffffffffffffffffffffffffffffffffffff16021790555060808201518160040160006101000a81548173ffffffffffffffffffffffffffffffffffffffff021916908373ffffffffffffffffffffffffffffffffffffffff16021790555060a0820151816005015560c0820151816006015560e08201518160070160006101000a81548160ff0219169083600181111561093e57fe5b021790555090505060036000805481526020019081526020016000203390806001815401808255809150509060018203906000526020600020016000909192909190916101000a81548173ffffffffffffffffffffffffffffffffffffffff021916908373ffffffffffffffffffffffffffffffffffffffff160217905550506001600080828254019250508190555050505050565b600042905090565b818310610a34576040517f08c379a0000000000000000000000000000000000000000000000000000000008152600401808060200182810382526033815260200180611ba76033913960400191505060405180910390fd5b60008111610aaa576040517f08c379a000000000000000000000000000000000000000000000000000000000815260040180806020018281038252601f8152602001807f53746172742050726963652073686f756c6420626520706f7369746976652e0081525060200191505060405180910390fd5b610ab2611a02565b600460008681526020019081526020016000206040518061010001604052908160008201548152602001600182018054600181600116156101000203166002900480601f016020809104026020016040519081016040528092919081815260200182805460018160011615610100020316600290048015610b745780601f10610b4957610100808354040283529160200191610b74565b820191906000526020600020905b815481529060010190602001808311610b5757829003601f168201915b50505050508152602001600282018054600181600116156101000203166002900480601f016020809104026020016040519081016040528092919081815260200182805460018160011615610100020316600290048015610c165780601f10610beb57610100808354040283529160200191610c16565b820191906000526020600020905b815481529060010190602001808311610bf957829003601f168201915b505050505081526020016003820160009054906101000a900473ffffffffffffffffffffffffffffffffffffffff1673ffffffffffffffffffffffffffffffffffffffff1673ffffffffffffffffffffffffffffffffffffffff1681526020016004820160009054906101000a900473ffffffffffffffffffffffffffffffffffffffff1673ffffffffffffffffffffffffffffffffffffffff1673ffffffffffffffffffffffffffffffffffffffff16815260200160058201548152602001600682015481526020016007820160009054906101000a900460ff166001811115610cfd57fe5b6001811115610d0857fe5b8152505090503373ffffffffffffffffffffffffffffffffffffffff16816060015173ffffffffffffffffffffffffffffffffffffffff1614610db3576040517f08c379a00000000000000000000000000000000000000000000000000000000081526004018080602001828103825260158152602001807f54686973206973206e6f7420796f7572204e46542e000000000000000000000081525060200191505060405180910390fd5b60006001811115610dc057fe5b8160e001516001811115610dd057fe5b14610e43576040517f08c379a00000000000000000000000000000000000000000000000000000000081526004018080602001828103825260108152602001807f49742063616e277420626520736f6c640000000000000000000000000000000081525060200191505060405180910390fd5b610e4b611afe565b604051806101200160405280600154815260200187815260200186815260200185815260200184815260200160008152602001836060015173ffffffffffffffffffffffffffffffffffffffff168152602001836060015173ffffffffffffffffffffffffffffffffffffffff16815260200160006002811115610ecb57fe5b815250905060018260e001906001811115610ee257fe5b90816001811115610eef57fe5b8152505080600260006001548152602001908152602001600020600082015181600001556020820151816001015560408201518160020155606082015181600301556080820151816004015560a0820151816005015560c08201518160060160006101000a81548173ffffffffffffffffffffffffffffffffffffffff021916908373ffffffffffffffffffffffffffffffffffffffff16021790555060e08201518160070160006101000a81548173ffffffffffffffffffffffffffffffffffffffff021916908373ffffffffffffffffffffffffffffffffffffffff1602179055506101008201518160070160146101000a81548160ff02191690836002811115610ff857fe5b021790555090505060018060008282540192505081905550505050505050565b600080600260008581526020019081526020016000209050806002015442101561108d576040517f08c379a0000000000000000000000000000000000000000000000000000000008152600401808060200182810382526034815260200180611c2a6034913960400191505060405180910390fd5b80600301544211156110ea576040517f08c379a0000000000000000000000000000000000000000000000000000000008152600401808060200182810382526034815260200180611c5e6034913960400191505060405180910390fd5b600060028111156110f757fe5b8160070160149054906101000a900460ff16600281111561111457fe5b14611187576040517f08c379a00000000000000000000000000000000000000000000000000000000081526004018080602001828103825260188152602001807f54686973204e4654206973206e6f7420666f722073616c65000000000000000081525060200191505060405180910390fd5b80600401548310156111e4576040517f08c379a0000000000000000000000000000000000000000000000000000000008152600401808060200182810382526027815260200180611c036027913960400191505060405180910390fd5b80600501548311611240576040517f08c379a0000000000000000000000000000000000000000000000000000000008152600401808060200182810382526029815260200180611bda6029913960400191505060405180910390fd5b828160050181905550338160070160006101000a81548173ffffffffffffffffffffffffffffffffffffffff021916908373ffffffffffffffffffffffffffffffffffffffff160217905550600191505092915050565b6000600260008381526020019081526020016000209050428160030154101561131a576000816005015411156112f25760018160070160146101000a81548160ff021916908360028111156112e857fe5b0217905550611319565b60028160070160146101000a81548160ff0219169083600281111561131357fe5b02179055505b5b5050565b60006002600083815260200190815260200160002090503373ffffffffffffffffffffffffffffffffffffffff168160070160009054906101000a900473ffffffffffffffffffffffffffffffffffffffff1673ffffffffffffffffffffffffffffffffffffffff161461139157600080fd5b3481600501541461140a576040517f08c379a00000000000000000000000000000000000000000000000000000000081526004018080602001828103825260158152602001807f57726f6e6720616d6f756e74206f66206d6f6e6579000000000000000000000081525060200191505060405180910390fd5b60006004600083600101548152602001908152602001600020905060008160070160006101000a81548160ff0219169083600181111561144657fe5b02179055508060030160009054906101000a900473ffffffffffffffffffffffffffffffffffffffff1673ffffffffffffffffffffffffffffffffffffffff166108fc349081150290604051600060405180830381858888f193505050501580156114b5573d6000803e3d6000fd5b508060030160009054906101000a900473ffffffffffffffffffffffffffffffffffffffff168160040160006101000a81548173ffffffffffffffffffffffffffffffffffffffff021916908373ffffffffffffffffffffffffffffffffffffffff160217905550338160030160006101000a81548173ffffffffffffffffffffffffffffffffffffffff021916908373ffffffffffffffffffffffffffffffffffffffff1602179055506001816006016000828254019250508190555060036000826000015481526020019081526020016000203390806001815401808255809150509060018203906000526020600020016000909192909190916101000a81548173ffffffffffffffffffffffffffffffffffffffff021916908373ffffffffffffffffffffffffffffffffffffffff16021790555050505050565b60005481565b60015481565b6003602052816000526040600020818154811061161857fe5b906000526020600020016000915091509054906101000a900473ffffffffffffffffffffffffffffffffffffffff1681565b6004602052806000526040600020600091509050806000015490806001018054600181600116156101000203166002900480601f0160208091040260200160405190810160405280929190818152602001828054600181600116156101000203166002900480156116fc5780601f106116d1576101008083540402835291602001916116fc565b820191906000526020600020905b8154815290600101906020018083116116df57829003601f168201915b505050505090806002018054600181600116156101000203166002900480601f01602080910402602001604051908101604052809291908181526020018280546001816001161561010002031660029004801561179a5780601f1061176f5761010080835404028352916020019161179a565b820191906000526020600020905b81548152906001019060200180831161177d57829003601f168201915b5050505050908060030160009054906101000a900473ffffffffffffffffffffffffffffffffffffffff16908060040160009054906101000a900473ffffffffffffffffffffffffffffffffffffffff16908060050154908060060154908060070160009054906101000a900460ff16905088565b60006004600083815260200190815260200160002090506000600181111561183357fe5b8160070160009054906101000a900460ff16600181111561185057fe5b14156118815760018160070160006101000a81548160ff0219169083600181111561187757fe5b02179055506119fe565b6000600180540390505b600081106119fc57600060026000838152602001908152602001600020905083816001015414156119ed576002808111156118c257fe5b8160070160149054906101000a900460ff1660028111156118df57fe5b14156119115760008360070160006101000a81548160ff0219169083600181111561190657fe5b0217905550506119fc565b6001600281111561191e57fe5b8160070160149054906101000a900460ff16600281111561193b57fe5b1480156119bb57508260030160009054906101000a900473ffffffffffffffffffffffffffffffffffffffff1673ffffffffffffffffffffffffffffffffffffffff168160070160009054906101000a900473ffffffffffffffffffffffffffffffffffffffff1673ffffffffffffffffffffffffffffffffffffffff16145b156119ec5760008360070160006101000a81548160ff021916908360018111156119e157fe5b0217905550506119fc565b5b5080806001900391505061188b565b505b5050565b604051806101000160405280600081526020016060815260200160608152602001600073ffffffffffffffffffffffffffffffffffffffff168152602001600073ffffffffffffffffffffffffffffffffffffffff168152602001600081526020016000815260200160006001811115611a7857fe5b81525090565b828054600181600116156101000203166002900490600052602060002090601f016020900481019282601f10611abf57805160ff1916838001178555611aed565b82800160010185558215611aed579182015b82811115611aec578251825591602001919060010190611ad1565b5b509050611afa9190611b81565b5090565b604051806101200160405280600081526020016000815260200160008152602001600081526020016000815260200160008152602001600073ffffffffffffffffffffffffffffffffffffffff168152602001600073ffffffffffffffffffffffffffffffffffffffff16815260200160006002811115611b7b57fe5b81525090565b611ba391905b80821115611b9f576000816000905550600101611b87565b5090565b9056fe41756374696f6e2073746172742074696d652073686f756c64206265206561726c696572207468616e20656e642074696d652e56616c75652073686f756c64206265206c6172676572207468616e2070726573656e7420707269636556616c75652073686f756c64206265206c6172676572207468616e20737461727420707269636543757272656e742074696d652073686f756c64206265206c61746572207468616e2061756374696f6e2073746172742074696d6543757272656e742074696d652073686f756c64206265206561726c696572207468616e2061756374696f6e20656e642074696d65a265627a7a723158204d3883df095efb31a3ad66cb356f06430edb5fb00985dd9aa99e1dbb978c070364736f6c63430005100032",
  "source": "pragma solidity >=0.4.22 <0.6.0;\r\n\r\ncontract NFTAuction{\r\n    enum EnableSale { Yes , No }\r\n    enum NFTStatus { Open, Sold, Unsold }\r\n    struct NFT{\r\n        uint id;\r\n        string name;\r\n        string description;\r\n        address payable presentowner;\r\n        address lastowner;\r\n        uint sp;\r\n        uint numown;\r\n        EnableSale state;\r\n    }\r\n    struct Item{\r\n        uint aucid;\r\n        uint nftid;\r\n        uint auctionStartTime;\r\n        uint auctionEndTime;\r\n        uint startPrice;\r\n        uint highestBid;\r\n        address lastowner;\r\n        address highestBidder;\r\n        NFTStatus status;\r\n    }\r\n    uint public nftIndex;\r\n    uint public aucIndex;\r\n    mapping (uint => Item) public deals;\r\n    mapping (uint => address[]) public own;\r\n    mapping (uint => NFT) public stores;\r\n    \r\n    constructor() public{\r\n        nftIndex = 0;\r\n        aucIndex = 0;\r\n    }\r\n    \r\n    function addNFT(string memory _name, string memory _description,uint sp) payable public{\r\n        NFT memory nft = NFT(nftIndex, _name,_description,msg.sender,msg.sender,sp,1,EnableSale.Yes);\r\n        stores[nftIndex] = nft;\r\n        own[nftIndex].push(msg.sender);\r\n        nftIndex += 1;\r\n    }\r\n    \r\n    function addItem(uint _nftid,uint _auctionStartTime, uint _auctionEndTime \r\n    , uint _startPrice  ) public {\r\n        require(_auctionStartTime < _auctionEndTime, \"Auction start time should be earlier than end time.\");\r\n        require(_startPrice>0,\"Start Price should be positive.\");\r\n        NFT memory nft = stores[_nftid];\r\n        require(nft.presentowner == msg.sender,\"This is not your NFT.\");\r\n        require(nft.state == EnableSale.Yes,\"It can't be sold\");\r\n        Item memory item= Item(aucIndex, _nftid, _auctionStartTime,_auctionEndTime,_startPrice,0,nft.presentowner,nft.presentowner,NFTStatus.Open);\r\n        nft.state=EnableSale.No;\r\n        deals[aucIndex] = item;\r\n        aucIndex += 1;\r\n    }\r\n    \r\n    \r\n    function check(uint _aucid) public {\r\n        Item storage item = deals[_aucid];\r\n        if (item.auctionEndTime < now){\r\n            if (item.highestBid>0){\r\n                item.status = NFTStatus.Sold;\r\n            }\r\n            else{\r\n                item.status = NFTStatus.Unsold;\r\n            }\r\n        }\r\n        \r\n    }\r\n    \r\n    function checksale(uint _nftid) public {\r\n        NFT storage nft = stores[_nftid];\r\n        if (nft.state == EnableSale.Yes){\r\n            nft.state = EnableSale.No;\r\n        }\r\n        else{\r\n            for (uint i=aucIndex-1;i>=0;i--){\r\n                Item storage item = deals[i];\r\n                if (item.nftid == _nftid){\r\n                    if (item.status == NFTStatus.Unsold){\r\n                        nft.state = EnableSale.Yes;\r\n                        break;\r\n                    }\r\n                    if (item.status == NFTStatus.Sold && item.highestBidder == nft.presentowner){\r\n                        nft.state = EnableSale.Yes;\r\n                        break;\r\n                    }\r\n                }\r\n            }\r\n        }\r\n    }\r\n    \r\n    function getDate() public view returns(uint ){\r\n        return now;\r\n    }\r\n    \r\n    function bid(uint _aucid, uint value) public returns (bool){\r\n        Item storage item = deals[_aucid];\r\n        require(now >= item.auctionStartTime, \"Current time should be later than auction start time\");\r\n        require(now <= item.auctionEndTime, \"Current time should be earlier than auction end time\");\r\n        require(item.status == NFTStatus.Open,\"This NFT is not for sale\");\r\n        require(value >= item.startPrice, \"Value should be larger than start price\");\r\n        require(value > item.highestBid, \"Value should be larger than present price\");\r\n        item.highestBid = value;\r\n        item.highestBidder = msg.sender;\r\n        return true;\r\n    }\r\n    \r\n    function payNFT(uint _aucid) payable public{\r\n        Item storage item = deals[_aucid];\r\n        require(item.highestBidder==msg.sender);\r\n        require(item.highestBid==msg.value,\"Wrong amount of money\");\r\n        NFT storage nft = stores[item.nftid];\r\n        nft.state = EnableSale.Yes;\r\n        nft.presentowner.transfer(msg.value);\r\n        nft.lastowner = nft.presentowner;\r\n        nft.presentowner = msg.sender;\r\n        nft.numown += 1;\r\n        own[nft.id].push(msg.sender);\r\n    }\r\n    \r\n}",
  "sourcePath": "D:\\NFTAuction\\contract\\contracts\\NFTAuction.sol",
  "compiler": {
    "name": "solc",
    "version": "0.5.16+commit.9c3226ce.Emscripten.clang"
  },
  "schemaVersion": "3.4.3",
  "updatedAt": "2021-11-03T07:11:36.870Z",
  "networkType": "ethereum",
  "devdoc": {
    "methods": {}
  },
  "userdoc": {
    "methods": {}
  }
}